$
:020000040020DA
:20AF000010B581B0664800F0CAF8002365490B6065490B6000F01EFB01F094FB002803D002
:20AF200001236248037001E000F064FD01F00AF802F040FA00235E490B605E480378012107
:20AF40000B43037002F047FA5B49087059490B78802213400B70002358490B800D28ECD00C
:20AF60000A28EAD0564C3A2805D100F0CDF8002800D185E02FE04C2804D100F059F9002836
:20AF80007ED028E04D2804D100F0C7F9002877D021E04E2804D100F072F9002870D01AE0E9
:20AFA000CE2804D100F0E4F9002869D013E05E2804D100F02EFA002862D00CE0E52804D10A
:20AFC00000F05EFA00285BD005E0572858D1802338480370B1E733480368002B07D13748B3
:20AFE0000388002B03D0374803682E48036000F065FA002844D000F0B9FB002840D02E4927
:20B0000008783A2801D040280DD168460330012100F0CDFA002833D06A46D0782A4A11785D
:20B0200043181B062CD124490878572807D157232370201C0022012102F0E5F97DE73A2830
:20B0400001D12E23F4E74C2805D120484C23C37001220621F0E7CE2803D05E2801D0E52850
:20B060000BD11A4CE070FF232371201C0122062102F0C9F9FC2323715FE74D2800D15CE7CC
:20B0800058232370201C0022012102F0BCF90022D0430123111C00F04AFC01B010BD17E04A
:20B0A0008CD7200090D7200094D72000D0D7200098D72000D1D72000D2D72000C8D7200055
:20B0C000D3D720009CD72000D4D72000D5D720008546F7467047011C0020B34B994209D9C5
:20B0E000B24A8B1AB24A934204D3012212058B1A934206D2002904D04A1C02D0CB0700D59F
:20B1000001200006000E7047F0B5AA4C201C042100F04DFA002800D181E0A74EA74D217834
:20B120006278A778E0785318FB18C3182B70A44B198012023A43A34B1A60002871D00228B6
:20B1400016D1002A6BD1022969D1201C00F02FFA002864D02178627853182878C01828709E
:20B160000B0310011843306000239548038058E0042818D1002A52D1022950D1201C00F030
:20B1800016FA002805D16078217843182878C018287020780306607800041843306000233A
:20B1A00087490B803DE005281AD1002A37D1042935D1201C00F0FBF9002830D021786278DF
:20B1C000A778E0785318FB18C3182C78E4182C700B06110419433B02194301433160C3E7C9
:20B1E00001281CD10A431AD1201C012100F0DFF9002814D02378FF2B11D100F0C9FA00284D
:20B200000DD071482E2303700022012102F0FBF80022D0430123111C00F089FB01E00020B0
:20B2200005E06848036831685B1803600120F0BD30B502F0D8F8FC2805D102F0D4F86049C9
:20B240000880042801D2002018E05E4C02F0CBF8051C256002F0C7F803021D43256002F0BD
:20B26000C2F803041D43256002F0BDF800062843206053480388043B0380012030BD70B575
:20B2800000F086FA002809D002F0ADF8FC2805D102F0A9F84A490880042801D000203BE0C6
:20B2A000484C02F0A0F8061C266002F09CF803021E43266002F097F803041E43266002F0F5
:20B2C00092F8000630432060404841490B78C3700122062102F097F83E480568FF20000640
:20B2E0002B1A0120000683420DD300112B1A834203D201231B059D4205D86868FFF7EBFE9E
:20B30000002800D0256023685A682260281C0123002100F00CFB012070BD30B500F038FA0C
:20B32000002807D002F05FF8FC2803D102F05BF8052801D000201AE0224C02F054F8051CA3
:20B34000256002F050F803021D43256002F04BF803041D43256002F046F803061D43256005
:20B3600002F041F8011C281C00F06AFA012030BD30B502F038F8FF2847D102F034F804284F
:20B3800043D1104D02F02FF8041C2C6002F02BF803021C432C6002F026F803041C432C6070
:20B3A00002F021F818E0C046FFBF050001002000FEDF0100DBD7200094D72000D4D720009A
:20B3C000C8D720009CD72000D3D72000D5D72000D2D7200090D7200003061C432C60524BA4
:20B3E0009C4201D1514C2C605048231A834206D200204F4B0021195401300B28F9DB201C46
:20B40000002100F069FA002801D1002000E0012030BD30B501F0E7FFFF282DD101F0E3FFFC
:20B42000042829D1434D01F0DEFF041C2C6001F0DAFF03021C432C6001F0D5FF03041C43F7
:20B440002C6001F0D0FF03061C432C600020230B1B038100384A5158090B09038B4202D1D4
:20B46000334B0021195401300B28F0DB201C012100F032FA002801D1002000E0012030BD0F
:20B4800000B501F0B0FFFF2814D101F0ACFF012810D12A480378002B06D001F0A4FF01F032
:20B4A000E0F8002806D007E001F09DFF00F0ADFA002801D1002000E0012000BD00B581B0ED
:20B4C00029E01F4803784C2B04D101F08CFF6946C87006E068460330012100F068F8002871
:20B4E0000BD06A46D178174803785B180370114A106800F0F6F8002801D1002010E00D48A8
:20B5000003680133036010480388013B03800F480368013303600C480388002BD1D1012061
:20B5200001B000BD14E0C046EFEEBEFC00001000DFD720009CD72000C4D42000D0D7200014
:20B54000D2D72000D4D72000C8D7200098D720000047704700200123A04A1370A04BA14A84
:20B560001380A14940230B7030234B7031238B709E490E230B7004234B7001238B70FC2360
:20B580000B714871011C9A4B585401310B29FADB9849087098490870984908709849086039
:20B5A0000021CB4397490B6097490870704770B5051C0E1C30E001F016FF031C303B0A2BBD
:20B5C00001D230210AE0031C413B062B01D2372104E0031C613B062B17D25721401A0407D0
:20B5E000240E01F000FF031C303B0A2B01D230210DE0031C413B062B01D2372107E0031C5C
:20B60000613B062B01D2572101E0002007E0431A1C432C700135013E002ECCD1012070BD44
:20B6200030B5002406E0035D0D5DAB4201D0002003E001349442F6DB012030BD10B50024BD
:20B6400016E06C490B786E4908682018002B06D06E4B195D01F031F8002806D007E06B4B78
:20B66000195D00F0DEF9002801D1002005E00134644803689C42E4DB012010BDF0B5614E63
:20B680005F4B1A68002A03D1021C1A60002333603568002D23DB032D21D05C4F79550024AC
:20B6A000AB1898420ED16A1C5949381CFFF7B8FF002806D16A1C5749381CFFF7B1FF00289E
:20B6C00000D00124200603D0691C3160012007E0002D01DDFFF7B2FF0021C94331600020CE
:20B6E000F0BD30B5041C0D1CFF200006231A01200006834215D201233F4A1370201CFFF7D8
:20B70000BDFF002801D001202FE03A4A1378291C201C002B02D000F0D0FF26E000F081F988
:20B7200023E00011231A834219D2012332490B70002083003849C9588C4208D1374B195C0B
:20B740008D4204D12A4B01211954081C0DE001300B28EEDB291C201C00F02EFC05E02570EE
:20B7600023780020AB4200D1012030BD10B5002400F080F9002808D000F075FF002804D090
:20B7800000F0CDFC002800D001242006000E10BD30B50024164D2B5D002B08D01F4B195DFB
:20B7A000A0001D4A105800F007FC002844D000232B5501340B2CEDDB00F0B1FC00283BD044
:20B7C000FFF73CFF002837D0002400F053F9002828D000F048FF002822E0C046D1D720005A
:20B7E000204E0000CAD72000EAD72000D5D72000DFD72000D0D72000EDD72000CED7200027
:20B80000A0D72000A4D72000CFD72000EED72000BCD42000BFD42000C4D42000F0D420004C
:20B8200000D001242406240E62480378002B05D100F046F9002801D1002000E0201C30BD3F
:20B8400010B5C1B00C1CFF2109060E236A461370FB2C2DD8231D5370012393704D23D370EE
:20B86000FC2301AA137000235370431A01221206934211D24F48191C0378221C68460630DC
:20B88000002B04D000F046FF002811D01CE000F02AF900280CD017E01111431A8B4209D23A
:20B8A000221C011C6846063000F063FB00280BD100200FE0002105E06A468A1803780130E4
:20B8C00093710131A142F7D3A11D6846012201F09AFD012041B010BD00B5374A831A012299
:20B8E0001206934215D20023344A1360DB43344A1360304A1378002B04D02F4A801A00F04A
:20B900001DFF13E0002910D10120C00300F00DF90CE01211831A934207D2002902D000F0EF
:20B9200002FD03E000F0CAFD00E0002000BD00B57D20C0010138FDD1002B00D11A1C2149FB
:20B940000B68222083430B6001201043FFF7EAFD00BD00B51C4B1D4803601D480378002B04
:20B9600003D01C4B1C48038012E01B4908880138088000040CD1194858230370002201218B
:20B9800001F041FD0022D0430123111CFFF7CFFF00BD30B5051C002408E0002101317D236C
:20B9A0001B019942FAD3FFF7D4FF0134AC42F4D330BDC046D0D72000000000FFA0D72000C0
:20B9C000A4D72000200436000024F40000903200D1D72000204E0000CAD72000D3D72000D7
:20B9E0006D4801239B036D4A138003886C490B400380704700B5FFF7F3FF00F047F900F004
:20BA000007FF002367490B7000BD00B581B000F08DF9684603300122002100F064F801B097
:20BA200000BDF0B5061C0F1C5E4C5F4D2078002809D0296843189E4206D000F01BF800289B
:20BA400012D0002020702E6021784B1C23702078564B5F5429684318990601D0402807D1AB
:20BA600000F008F8002801D1002002E0002323700120F0BD10B582B04A4C2378002B01D131
:20BA800001201BE0484A1068010A01AA9170D07000F016F800280DD0454B46480380A02322
:20BAA000009301AA023221784048022300F074FE012801D0002001E00023237002B010BD3C
:20BAC00010B5002406E001347D231B019C4201D1002007E0A0220221002000F014FA0328C1
:20BAE000F1D0012010BD70B581B0051C0C1C161CFFF7E6FF002815D0200A69468870CC70D1
:20BB0000A02268460230022100F0FDF9012809D1A022311C281C00F001FA012802D1000637
:20BB2000000E00E0002001B070BD30B581B0051CFF210020FFF775FF012427E0201C01349B
:20BB40000021FFF76EFF00280ED0630602D1184B18480380A30519D1684601300122002124
:20BB6000FFF7C1FF002801D1002012E068464378002B0DD0FF2369464B7001238B70CE23F6
:20BB8000CB70481C0122032101F03DFCAC42D5D3012001B030BDC0461001390004023900B1
:20BBA000FDFF0000CFD72000B0D72000F2D72000204E0000CAD7200000B5A1490B689B084F
:20BBC0009B000220184308601E2000F022FF9C490B689B089B000B6000BD00B598490B68CF
:20BBE0009B089B000B601E2000F013FF94490B689B089B000220184308601E2000F009FFB3
:20BC00008F490B6803201843086000BD30B58C4C606C000A00026064606C000A0002606441
:20BC2000236803211943216086490B6803210B4384490B60FFF7C0FF1E2000F0EAFE0A2592
:20BC400023689B089B000121194321601E2000F0E0FE23680321194321601E2000F0D9FE7F
:20BC6000013DEDD1FFF7A8FF1E2000F0D2FEFFF7B4FF754800F0CDFE724A13689B089B0097
:20BC80001360606CFF210843606430BD00B500206E4908606E4908706E49087000F046F8C9
:20BCA0006D490B681B0A1B020B6000BD00B51922520411680907090F012904D306D0032907
:20BCC00007D308D009E0FF21E13107E0FF21413104E0F02102E0A02100E07821002804D011
:20BCE000202804D0302804D005E0042004E0082002E00A2000E0012001F0BCFB00BD10B5B0
:20BD0000564C54490B784F2213400B702368B0218B432360FFF7CAFFFF2800D9FF20010690
:20BD2000090EA164C005000EE06410BD00B5FFF7E6FF00BD454A13681906090E022008400C
:20BD400019D0002313604B0701D5032013E044480378002B0ED0002008E042490B6881008F
:20BD6000414A895C195401300006000E3C490B789842F2D30120704710B5002404E0013420
:20BD8000630701D1FFF7E5FDFFF7D4FF0028F6D010BD00B52D480368DB0706D5FFF7ECFFD8
:20BDA0003249087001232A490B7000BDF0B583B002900C1C151C1F1C09A800780990FFF70B
:20BDC000E8FF38E010210998012803D11023D91B0906090E8C4201D22106090E0E1C09989E
:20BDE000019008A8007800903B1C2A1C029800F03FF8FFF7C1FF0006000E01281ED1029820
:20BE000080190290A41B2404240C391C13D0FF310906090E6A5C92196A546A5CB24208D38E
:20BE200009E0FF310906090E6A5C01326A54120601D10029F5D1002CC4D1012003B0F0BDF1
:20BE40004800320020C43200102700004C05360032D8200033D820008C00320048053600FE
:20BE600034D82000B4D720005005360035D82000F0B581B01C1C2E4E0023F3642823013BA8
:20BE8000FDD106AD2D783560002C0BD0002707E0BB00284D5D19D35D2B7001373F063F0E97
:20BEA000A742F5D307AA1278002A0DD1224A1060224A11700D1C0120002C1BD06B011C4399
:20BEC00025062D0E032015E000271C4A177065182D062D0E0BE03B199B00164A0092C25DFA
:20BEE00002B401995A5402BC01373F063F0E8F42F1D3002012490B7818437564B0640120C0
:20BF0000F06401B0F0BD00B582B001230193009200231A1CFFF74AFF02B000BD00B582B050
:20BF20000023019300921A1CFFF740FF02B000BD0005360004053600B4D7200034D820008D
:20BF400033D8200000209E4B0021195401302028F9D300239B490B709B490B709B4B9C492E
:20BF60000B609C490B685B095B011E2018430860704706E00B78037001300131FF321206FE
:20BF8000120E002AF6D10120704730B50022151C04880C800388A34201D1013202E01C1CD9
:20BFA0000C80002201358C4B9D4201D1002002E0642AEFD3012030BDF0B581B0051C0F1C93
:20BFC0000026804C207800280BD0844A116843189D421CD000F0A3F8002829D00021217009
:20BFE00015D17F480670EB070FD5013D69460231281CFFF7CAFF00281AD0684643887948D9
:20C00000037001232370764803707448056021784B1C23702078734B5F54704A116843187A
:20C02000190501D0202806D100F079F8002801D1002001E02670012001B0F0BD30B5624DED
:20C040002B78002B53D10124240520886188664B2380664A62802388634A934204D1208087
:20C06000618004232B7042E0902000F015F92088BF2816D1902000F00FF960885C4B184048
:20C080004F23DB01984209D05A4B984206D05A4B984203D09D239B01984202D10120287036
:20C0A0003CE0902000F001F92088012821D1902000F0FBF860884E4B1840504B984211D045
:20C0C0008B239B01984209D102232B7001234C490B707F239B034B490B6008E089239B01FF
:20C0E000984206D102232B70002345490B70012014E0902000F0D9F843490888F02323804B
:20C100001C280AD1902000F0D0F86088F02323803E4B984201D10323E5E7002030BDF0B521
:20C1200082B0284D002201922878002800D19BE02C4E2A4FC30712D5694602313A688318CC
:20C14000581EFFF722FF002800D189E028786A4651880B1233540130287001200190FFF7B2
:20C160006DFF00287CD018490878012803D0022801D003285ED1386801210905431A1A0B5B
:20C18000D10820296CD20E4B5207520F01249440595C214011D100F0C6F8002860D01048DD
:20C1A0000378002B01D0FF2333700198002804D0731E2878C018FF230370002436E0C046D0
:20C1C00036D82000CED7200056D8200002030A0A7000320064003200C0270900B8D720002E
:20C1E00057D8200058D820003412000078560000E0FF00002027000060530000A0220000F1
:20C2000078D82000BCD7200000021000BA220000A01940780302315D19436A46518038688C
:20C22000201800F066F800281AD002342B789C42EED317E0042813D100240DE0A019407865
:20C240000302315D19436A46518038680153035B5088834204D102342B789C42EED301E051
:20C26000002002E000232B70012002B0F0BD00B5F023012212051380A74A1178012902D172
:20C2800000F00AF807E0022901D0032902D100F00CF800E0FEE700BDAA23A0490B8055239B
:20C2A0009F490B809D4908807047AA239D490B8055239D490B809B490880704730B5930024
:20C2C0009A1A01E0013A0DD080230B40048880252C40A342F6D1F0236A031380052203E05D
:20C2E000013A01D1002003E003889942F8D1012030BD30B5041C0D1CA020FFF7B8FF2580B1
:20C3000085490A78012A05D11422291C201CFFF7D5FF07E0022A01D0032A02D1FF226932AB
:20C32000F3E7002030BDF0B581B0051CFFF786FE002800D1BFE0784E3378042B00D1BAE002
:20C340002B051B0DED1A01231B05E91A00910C0BA310580F0319DF10202F00DBABE0802015
:20C36000FFF785FF3078012802D16C4A6C4906E0022802D0032800D09DE06A4A6A49AA23A6
:20C38000138055230B8030232B80012815D1674A6749281CFFF792FF00280ED06548A31068
:20C3A000590F0B19D910CB00E11A0122131C8B40C15D1943C155101C7EE03078022801D068
:20C3C000032878D15C4A1378002B0DD10099584A531C99422CD25B10994222D25B109942AC
:20C3E00012D2042600242BE0544A11688D4206D304266310990F0B1999108B001EE0012283
:20C4000092038B1A9D4207D30226E30F19194B105900631AE41A13E0032292038B1A9D427D
:20C4200006D30826A310590F0B19D910CB0005E01026E310190F0B1919110B01E11A641AF9
:20C4400002281AD13E4A3A49281CFFF737FF002831D03848A310590F0B19DF10A310590F5A
:20C460000B19D910CB00E11A01228A40C15D1143C1550134013EECD11BE003281BD1314AB6
:20C480002B49281CFFF71AFF002814D02948A310590F0B19DF10A310590F0B19D910CB0037
:20C4A000E11A01228A40C15D1143C1550134013EECD1012000E0002001B0F0BD30B5012551
:20C4C0002D05FFF7BBFD00286ED0134C2378042B6AD08020FFF7CBFE2078012805D1AA23F0
:20C4E0000E4A13800E4A0D4908E0022801D003285AD1AA230B4A13800B4A0A495523138002
:20C5000010230B8001282AD10F4A0949281CFFF7D5FE00281AE0C04656D82000AAAA1000A7
:20C5200054551000AA0A100054051000A8610000FFFF000036D8200078D82000BCD72000BD
:20C5400080841E0080969800A086010007D00020164BFF21195401302028F9D322E023781D
:20C56000022B0ED1124A1349281CFFF7A7FE002807D000200D4BFF21195401302028F9D3CF
:20C5800010E02378032B0FD10B4A0A49281CFFF795FE002808D00020044BFF211954013060
:20C5A0002028F9D3012000E0002030BD36D8200080969800FFFF000000E1F50500216F4BC9
:20C5C000585401314029FAD3704710B5000BC2084007400F012383401806000E674CA35C9B
:20C5E000002901D0034300E08343A35410BDF0B581B0051C0E1C20E0290B0091CF08480785
:20C60000400F012383401C06240E5C49C85D204009D1281C012100F091F8002810D0574806
:20C62000C35D2343C355009A531C1B03581E431B591CB14203D2761A451C002EDCD1012037
:20C6400001B0F0BD00B500204D4908704D490880FFF7B4FF00F0E6F900F0F0F90006000E16
:20C6600000BD0120704730B545480378002B14D1444D2988002901D101201DE0424A1468C5
:20C680004248231A01200006834201D23F4BE41A201CFFF7ACFF002801D100200CE03C4A23
:20C6A0002988201C00F0B4FA2988884201D0002000E0012000232B8030BDF0B5061C0F1CD5
:20C6C0002F480378002B1FD12E4C2F4D2088002809D0296843189E4206D0FFF7C4FF00282B
:20C6E00012D0002020802E6021884B1C23802088274B5F5429684318190501D0402807D16F
:20C70000FFF7B1FF002801D1002002E0002323800120F0BD70B5051C0C1C161C00201849C2
:20C720000B78002B09D12A1C311C201C00F04AFBB04201D0002000E0012070BD10B5041C77
:20C740000F480378002B12D1201C00290AD00121090300F08DFB002809D0201C0121FFF7BF
:20C7600034FF09E00B4900F083FB002801D1002003E0FF20FFF722FF012010BD79D8200049
:20C78000B9D82000CCD72000C0D72000000000FFBAD82000FFFFFF0FF0B581B000900D1C22
:20C7A000161C1F1C069C002D2FD000F09CF8600840007B4900F00CF900F0B9F8041C012C6B
:20C7C0000ED000F0A5F8201C20E07549307800F0FFF800F0ACF8041C0128F2D13618013F37
:20C7E000002FF2D10DE06E49009A107800F0F0F800F09DF8041C0128E3D1009909180091DC
:20C80000013D002DEFD100F083F8012001B0F0BD00B5644800F004F800BD63490868704726
:20C8200010B5041C00F04FF8FFF7F0F9600002D500F053F801E000F046F8230C1B045A488C
:20C84000016819430160002C04D5192252041068400700E06007400F0143534A1160302025
:20C86000204000F003F800F00DF810BD00B54E4909683023994301434B4A116000F002F88B
:20C8800000BD704730B5494C47480168302008400009C0004A07520FFF218140042A09D2B5
:20C8A0009300434DEB580B40C34063609300414AD25804E0404A0A40C24062603F4A114063
:20C8C000C140216030BD3E490B681B0A1B020B600B68222003430B607047394803681B0A14
:20C8E0001B020360704700B52F490B685B0001D5FFF7E9FF2A490B6803201843086031490C
:20C900000B6803210B432F490B60FFF755F900BD00B5FFF762F92B490B689B089B000B60B8
:20C9200021490B685B0001D5FFF7D7FF00BD70B51E4D0320C6430124234A116808684008E1
:20C9400040000860214A11680868A0430860144A13689B089B00022018431060286800F00C
:20C9600058F8194A10680368DB0700D50324286800F04FF80A490B6833400B60286800F058
:20C9800048F812490B6818680121084318600E490B681868012108431860201C70BD7047D5
:20C9A0004800320012000040C4D7200004D92000FCD420000CD52000110601010A010101DC
:20C9C0008C00320020C4320000C0320000C4320030B4041C114B08251B6880221040002871
:20C9E00001D01D2200E008220A6092080C480A60006892086400401E0028FCD10A60181C04
:20CA0000401E0028FCD1201C013D002DE5D130BC7047401E0028FCD17047C04604D92000B6
:20CA200008D92000AA490B7801218B43A8490B700023A8490B70012070477047F0B586B02A
:20CA4000A54DA64EA24C2968059169680491A4490968029137687068039011232B60032098
:20CA600000026860DB019E48036001239B023360232040027060002300939A481A1C191C1B
:20CA800000F07AFB237801208343237001A800F09DF9002857D00021934DCB00EA18137845
:20CAA00083421AD1537801AF3E78B34215D193787E78B34211D1D37801AFBE78B3420CD1DF
:20CAC00013798A48037093798948037023780C2083430120617000211FE001310906090E3E
:20CAE0000629D9D301A80378202B04D14378402B01D1062300E007236370DB00E818837942
:20CB00007B4A137001AA907803071B0F774A137023780C2083430121081C03432020834383
:20CB2000C807800E034323706A4A1378002B06D100F04AF8002802D0002000F04CF800F00E
:20CB400092FA012009E0059A2A60049A6A606449029A0A603760039A726006B0F0BD30B5AD
:20CB6000051C634C2378DB0603D5502000F023FB06E0062000F01FFB00F018F88007FBD5A6
:20CB800023781B0703D500F011F8C007FBD42B02012119430804000C00F02DFB23781B07D9
:20CBA00003D500F003F8C007FBD430BD10B581B005236C46E370A31CE11C0122101C00F011
:20CBC000A2FBA07801B010BD00B5FFF7EFFF0C210840801000BD10B583071C0FFFF7E6FF72
:20CBE000F32108400443201CFFF7B9FF404A1378DB0702D5201CFFF7B2FF10BD00B5FFF77F
:20CC0000D5FFC007FBD400BD00B500F041FA00BDF0B587B001900C1C151C00F0BCF82C4971
:20CC20000B78DB0703D4FFF709FF002801D0002C01D1002098E027480378002B03D0002023
:20CC4000FFF7C9FF0EE02A480378DB0603D5502000F0B1FA06E0062000F0ADFAFFF7A6FF39
:20CC60008107FBD522490878430643D5FF270137830700D58027019E311C381C00F016FC6A
:20CC80003A1A0292A24200D902940298211A381C00F0F0FB049103902A1C0299301CFFF70A
:20CCA000B3FF019E029976186D1805E0391CFFF7ABFF019EF619ED1901962A1C301C039922
:20CCC00001390391F2D20499FFF79EFF42E0C046FAD82000FED820008C0032008002390009
:20CCE000FC013900E02E00001CD52000FFD8200000D92000062000F05EFAAF21012C00D1B3
:20CD0000022105AA117001A883785370437893700378D3702978013506A801700123009330
:20CD20000521081C00F0C0FAFFF768FF661E0CE02978013505AA5170012300930221081CED
:20CD400000F0B2FAFFF75AFF013E002EF0D1042000F031FAA8490B78002B02D00320FFF7F1
:20CD60003AFF00F003F8201C07B0F0BD00B5A34803781B060ED5A24908788308052119405B
:20CD8000042907D1B92000F016FA9D490B78082003430B7000BD10B5994C23781B0710D55A
:20CDA000AB2000F008FA002000E001300322A1560902A2780A439042F7D3237808208343D2
:20CDC000237010BD00B500F097F900BD10B583B0041C9F23684683701523C37090230293D3
:20CDE000002C00D101ACAB2000F0E5F9FF2087300138FDD1231C694602310322012000F0BC
:20CE000082FA2078002803D0FF2801D003201DE0231C694603310222012000F074FA002303
:20CE2000A3702078002801D0FF280CD1231C02A90222042000F067FA0023A37020780028D1
:20CE400003D0FF2801D0022000E0002003B010BD00B56B480378DB0703D4FFF7EFFD0028BF
:20CE600005D068490878030401200004181800BDF0B581B000900C1CFFF78DFF60490B7857
:20CE8000DB0703D4FFF7DAFD00285BD05A480378002B05D0FFF798FE051C0020FFF79BFE40
:20CEA000062000F088F9564A5178062926D001231B03554A9C4210D86F463B7818067E782A
:20CEC00036043043BB781B02184314234B439918097B084300F0B8F923E0DB009C421AD866
:20CEE0006F463B7818067E7836043043BB781B02184314234B439918497BEAE76B46197811
:20CF000008065A78120410439A78130218433F498A791043DEE714234B439918C87B00F0FA
:20CF20004AF9FFF743FEC107FBD433480378002B02D0281CFFF74FFE042000F03CF9FFF727
:20CF400015FF012001B0F0BDF0B5A0B0061C0F1C151C2B4C2378DB0703D4FFF76FFD002876
:20CF60001FD023780420034323700AE08021FFF729FF6A468021301CFFF74AFE8036803739
:20CF8000803D6A46381C802DF0D8291CFFF71AFF23780420834323706A46291C301CFFF7B8
:20CFA00037FE20B0F0BD10B5154C2378DB0703D4FFF744FD002855D0104803781B0651D5A7
:20CFC00013481922520411680907090F012905D30AD002291ED0042922D028E06378DB00F2
:20CFE000C0184079302120E06378DB00C01840794001803821E0C046FED8200000D9200019
:20D00000FAD82000FFD820005CD52000DCD520001CD520006378DB00C0184079182104E090
:20D020006378DB00C01840790C21484304E06378DB00C0184079000190384310990F0B18DF
:20D040009810A070A278000AE07000060014024302D50023A370E370237810200343237041
:20D06000FFF784FE10BD00B541480378DB0703D4FFF7E4FC00280AD03E4803781B0606D524
:20D08000FFF789FE3A490B78102083430B7000BDF0B583B002900D1C161C002D2AD02C1CAB
:20D0A0000A2D00D90A24062000F085F802A8017809064278120411438278130219430227B5
:20D0C0000F4301970023009301AA201D0123042100F0EAF801230093321C211C201D00230B
:20D0E00000F0E2F8FFF78AFD029B1B19029336192D1BD4D103B0F0BDF0B583B000900E1C55
:20D10000171C0024FFF747FE19490B78DB0703D4FFF794FC002828D0002E26D0351C082E8E
:20D1200000D908256846837801A94B7043788B700378CB700F4803789B0605D50B230B7079
:20D14000552302A9052001E0032304200B703B1C2A1C01A900F0D7F86419FFF707FE7F19CB
:20D16000009B5B190093761BD8D1201C03B0F0BDFAD8200000D9200010B5834C834A136870
:20D1800002221343814A1360814900F073F90138410020680122104320607E4B7E4A1360B5
:20D1A000206F402318432067984320677B4B13607B4A116010BD10B5774A744C2368022109
:20D1C0008B4323601168774B19401160764C206011680123DB021943116018025062012083
:20D1E0005060536A1B03FCD568480368022003436648036010BD30B581B06749634D2B6869
:20D20000022293432B606D46A870AA7803041C0EEC700868654B18400860634D2A602C6069
:20D2200008680123DB021843086018024862022048604B6A1B03FCD5544803680220034319
:20D240005248036001B030BD10B581B052494F4C23680222934323606C462070020A6270DF
:20D26000020CA270030EE3700868504B1840086000206B461A5C4C4C226001300428F8D3D6
:20D2800008680123DB021843086018024862042048604B6A1B03FCD53C48036802200343CF
:20D2A0003A48036001B010BD70B53B4C002829D0002927D0002B08D0344E33680225AB43E9
:20D2C00033602568394B1D402560002304E015780132354E356001338B42F8D30499002957
:20D2E00010D025680123DB021D432560190261626060636A1B03FCD5244803680220034342
:20D300002248036070BDF0B51C1C234D284E002839D0002A37D01D4B1B680227BB431B4F72
:20D320003B602F681F4B1F402F600F273368013FFCD1002703E00B780131736001378742F2
:20D34000F9D32F680723DB021F432F600121C9046962111869606B6A1B03FCD5002702E0F9
:20D360003368237001378742FAD3002703E030682070013401379742F9D304480368022094
:20D38000034302480360F0BD9400320018013900C05D0000210233000006360020023300D1
:20D3A00030063600FF87FFFF04073600FF97FFFF000736002B490B68402003430B600B6800
:20D3C000202083430B600B68402083430B60002325490B60704700B500F005F8012801D188
:20D3E00000F001F800BD10B5204C012320480360FEF7AFFA0820A066A36E1B07F8D4236811
:20D400001806000E10BD30B5184D002A00D00122141C0222AA66AB6E9B07FAD51EE0631845
:20D420000F2B01DC0A1C03E00F231A1B1204120C002C02D004232B600024891A0904090C98
:20D4400005E0013A1204120C037801302B60002AF7D10222AA66AB6E9B07FAD50029DED1B9
:20D4600030BDC04620043600300436001C0036002C04360030B400230124021C04D10E4AC6
:20D48000002A10D030BC1047914207D3891A1B194D08AA42F8D252006400F5E7012C02D01F
:1CD4A00052086408F0E7181C30BC704700B5FFF7E1FF081C08BC1847000000002A
:020000040020DA
:20D4BC000108000106000000C8001000E8101000E880100000E0130000F0130000E01700FB
:20D4DC0000F0170000E0190000F0190000E01F0000F01F0043434301010101010101010048
:20D4FC00200704031605030217050201110601011B06040311050302120302010A01010122
:20D51C0003C220140F03EC00031F6601011E6D00031F6500001EEE0002BF480000FF300018
:20D53C0002BF490001FF300003C220100003EC00032040140F1EEC000320FF140F1EEC00D2
:20D55C0006049F0501030BFF02FFFFFF20D8D8C7B9AB000006049F0501030BFF02FFFFFF3E
:20D57C0020D8D8C7FFFF0000060415050103FFFF02FFFFFF20525262B9AB000006049005AC
:20D59C0001030BFF02AF50FFFF20D8C7FFFF00000604900501030BFF02AF50FFFF20D8C73A
:20D5BC00FFFF000006049F0501030BFF02FFFFFF20D8D8C7B9AB000006049F0501030BFFDF
:20D5DC0002FFFFFF20D8D8C7B9AB000006049F0501030BFF02FFFFFF20D8D8C7B9AB00007F
:020000040020DA
:08D90400010000000100000019
:00AF000150
